{
  "contractName": "TodoList",
  "abi": [
    {
      "inputs": [],
      "payable": false,
      "stateMutability": "nonpayable",
      "type": "constructor"
    },
    {
      "constant": false,
      "inputs": [
        {
          "internalType": "string",
          "name": "electionName",
          "type": "string"
        }
      ],
      "name": "addElection",
      "outputs": [
        {
          "internalType": "bool",
          "name": "success",
          "type": "bool"
        }
      ],
      "payable": false,
      "stateMutability": "nonpayable",
      "type": "function"
    },
    {
      "constant": false,
      "inputs": [
        {
          "internalType": "uint256",
          "name": "electionIndex",
          "type": "uint256"
        },
        {
          "internalType": "string",
          "name": "candidateName",
          "type": "string"
        }
      ],
      "name": "addCandidatToElection",
      "outputs": [
        {
          "internalType": "bool",
          "name": "success",
          "type": "bool"
        }
      ],
      "payable": false,
      "stateMutability": "nonpayable",
      "type": "function"
    },
    {
      "constant": false,
      "inputs": [
        {
          "internalType": "uint256",
          "name": "electionIndex",
          "type": "uint256"
        },
        {
          "internalType": "uint256",
          "name": "candidateIndex",
          "type": "uint256"
        }
      ],
      "name": "vote",
      "outputs": [
        {
          "internalType": "bool",
          "name": "success",
          "type": "bool"
        }
      ],
      "payable": false,
      "stateMutability": "nonpayable",
      "type": "function"
    },
    {
      "constant": false,
      "inputs": [
        {
          "internalType": "string",
          "name": "_value",
          "type": "string"
        }
      ],
      "name": "addTodoItem",
      "outputs": [
        {
          "internalType": "bool",
          "name": "success",
          "type": "bool"
        }
      ],
      "payable": false,
      "stateMutability": "nonpayable",
      "type": "function"
    },
    {
      "constant": false,
      "inputs": [
        {
          "internalType": "uint256",
          "name": "index",
          "type": "uint256"
        }
      ],
      "name": "toggleItem",
      "outputs": [
        {
          "internalType": "bool",
          "name": "success",
          "type": "bool"
        }
      ],
      "payable": false,
      "stateMutability": "nonpayable",
      "type": "function"
    }
  ],
  "bytecode": "0x608060405234801561001057600080fd5b50612710600160003273ffffffffffffffffffffffffffffffffffffffff1673ffffffffffffffffffffffffffffffffffffffff1681526020019081526020016000208190555061093b806100666000396000f3fe608060405234801561001057600080fd5b50600436106100575760003560e01c8063358b9d971461005c57806377a76cbc1461012f57806379f2d5e31461020c578063ab634862146102df578063b384abef14610325575b600080fd5b6101156004803603602081101561007257600080fd5b810190808035906020019064010000000081111561008f57600080fd5b8201836020820111156100a157600080fd5b803590602001918460018302840111640100000000831117156100c357600080fd5b91908080601f016020809104026020016040519081016040528093929190818152602001838380828437600081840152601f19601f820116905080830192505050505050509192919290505050610375565b604051808215151515815260200191505060405180910390f35b6101f26004803603604081101561014557600080fd5b81019080803590602001909291908035906020019064010000000081111561016c57600080fd5b82018360208201111561017e57600080fd5b803590602001918460018302840111640100000000831117156101a057600080fd5b91908080601f016020809104026020016040519081016040528093929190818152602001838380828437600081840152601f19601f820116905080830192505050505050509192919290505050610413565b604051808215151515815260200191505060405180910390f35b6102c56004803603602081101561022257600080fd5b810190808035906020019064010000000081111561023f57600080fd5b82018360208201111561025157600080fd5b8035906020019184600183028401116401000000008311171561027357600080fd5b91908080601f016020809104026020016040519081016040528093929190818152602001838380828437600081840152601f19601f8201169050808301925050505050505091929192905050506104ef565b604051808215151515815260200191505060405180910390f35b61030b600480360360208110156102f557600080fd5b810190808035906020019092919050505061058b565b604051808215151515815260200191505060405180910390f35b61035b6004803603604081101561033b57600080fd5b810190808035906020019092919080359060200190929190505050610613565b604051808215151515815260200191505060405180910390f35b600060606000604051806060016040528085815260200183815260200160008152509080600181540180825580915050906001820390600052602060002090600402016000909192909190915060008201518160000190805190602001906103de929190610778565b5060208201518160020190805190602001906103fb9291906107f8565b50604082015181600301555050506001915050919050565b6000826000805490501161042a57600090506104e9565b604051806040016040528083815260200160008152506000848154811061044d57fe5b9060005260206000209060040201600101600080868154811061046c57fe5b906000526020600020906004020160030154815260200190815260200160002060008201518160000190805190602001906104a8929190610778565b5060208201518160010155905050600083815481106104c357fe5b906000526020600020906004020160030160008154809291906001019190505550600190505b92915050565b60006104f9610882565b828160000181905250600081602001901515908115158152505060028190806001815401808255809150509060018203906000526020600020906002020160009091929091909150600082015181600001908051906020019061055d929190610778565b5060208201518160010160006101000a81548160ff0219169083151502179055505050506001915050919050565b600060028054905082106105a2576000905061060e565b6000600283815481106105b157fe5b906000526020600020906002020160010160009054906101000a900460ff1615905080600284815481106105e157fe5b906000526020600020906002020160010160006101000a81548160ff021916908315150217905550809150505b919050565b6000826000805490501161062a5760009050610772565b816000848154811061063857fe5b90600052602060002090600402016003015410156106595760009050610772565b6000838154811061066657fe5b9060005260206000209060040201600101600083815260200190815260200160002060010160008154809291906001019190505550600083815481106106a857fe5b90600052602060002090600402016002013390806001815401808255809150509060018203906000526020600020016000909192909190916101000a81548173ffffffffffffffffffffffffffffffffffffffff021916908373ffffffffffffffffffffffffffffffffffffffff16021790555050600160003373ffffffffffffffffffffffffffffffffffffffff1673ffffffffffffffffffffffffffffffffffffffff1681526020019081526020016000206000815480929190600190039190505550600190505b92915050565b828054600181600116156101000203166002900490600052602060002090601f016020900481019282601f106107b957805160ff19168380011785556107e7565b828001600101855582156107e7579182015b828111156107e65782518255916020019190600101906107cb565b5b5090506107f4919061089e565b5090565b828054828255906000526020600020908101928215610871579160200282015b828111156108705782518260006101000a81548173ffffffffffffffffffffffffffffffffffffffff021916908373ffffffffffffffffffffffffffffffffffffffff16021790555091602001919060010190610818565b5b50905061087e91906108c3565b5090565b6040518060400160405280606081526020016000151581525090565b6108c091905b808211156108bc5760008160009055506001016108a4565b5090565b90565b61090391905b808211156108ff57600081816101000a81549073ffffffffffffffffffffffffffffffffffffffff0219169055506001016108c9565b5090565b9056fea265627a7a72315820a1fba8d2e9567a6b8484759de3c028b57dafca979dfda1e12b596f0fa6fcfa4864736f6c63430005100032",
  "source": "pragma solidity >=0.4.25 <0.7.0;\r\n\r\ncontract TodoList {\r\n\r\n    struct Candidat {\r\n        string name;\r\n        uint votes;\r\n    }\r\n\r\n    struct Election {\r\n        string name;\r\n        mapping (uint => Candidat) candidats;\r\n        address[] alreadyVoted;\r\n        uint candidatsCount;\r\n    }\r\n\r\n    Election[] elections;\r\n    mapping (address => uint) balances;\r\n\r\n\tconstructor() public {\r\n\t\tbalances[tx.origin] = 10000;\r\n\t}\r\n\r\n    function addElection(string memory electionName) public returns (bool success) {\r\n        address[] memory addresses;\r\n        elections.push(Election(electionName, addresses, 0));\r\n        return true;\r\n    }\r\n\r\n    function addCandidatToElection(uint electionIndex, string memory candidateName) public returns (bool success) {\r\n        if (elections.length <= electionIndex) return false;\r\n        elections[electionIndex].candidats[elections[electionIndex].candidatsCount] = Candidat(candidateName, 0);\r\n        elections[electionIndex].candidatsCount++;\r\n        return true;\r\n    }\r\n\r\n    function vote(uint electionIndex, uint candidateIndex) public returns (bool success) {\r\n        if (elections.length <= electionIndex) return false;\r\n        // Check msg.sender not in elections.alreadyVoted\r\n        if (elections[electionIndex].candidatsCount < candidateIndex) return false;\r\n        elections[electionIndex].candidats[candidateIndex].votes++;\r\n        elections[electionIndex].alreadyVoted.push(msg.sender);\r\n        balances[msg.sender]--;\r\n        return true;\r\n    }\r\n\r\n    \r\n\r\n    struct TodoItem {\r\n        string value;\r\n        bool done;\r\n    }\r\n\r\n    TodoItem[] todoItems;\r\n\r\n    function addTodoItem(string memory _value) public returns (bool success) {\r\n        TodoItem memory item;\r\n        item.value = _value;\r\n        item.done = false;\r\n\r\n        todoItems.push(item);\r\n        return true;\r\n    }\r\n\r\n    function toggleItem(uint index) public returns (bool success) {\r\n        if (index >= todoItems.length) return false;\r\n        \r\n        bool newValue = !todoItems[index].done;\r\n        todoItems[index].done = newValue;\r\n        return newValue;\r\n    }\r\n}",
  "sourcePath": "D:/cours/blockchain/ESGI-Blockchain/MetaCoin/contracts/Election.sol",
  "compiler": {
    "name": "solc",
    "version": "0.5.16+commit.9c3226ce.Emscripten.clang"
  },
  "schemaVersion": "3.3.2",
  "updatedAt": "2020-12-05T17:17:27.159Z",
  "networkType": "ethereum",
  "devdoc": {
    "methods": {}
  },
  "userdoc": {
    "methods": {}
  }
}